:020000040000FA
:100000007F2EFF3FFF3F0800FF00030E8301D80053
:100010000A08D7008A010B1C0F2821210B10570852
:100020008A00580E8300FF0E7F0E0900831203130F
:10003000FB01FA01F9018030F800F10CF00C031C0F
:100040002A287408F90775080318750FFA070318AA
:10005000FB0A0310F01F32287408FA07750803180A
:10006000750FFB07FB0CFA0CF90CF80C031C1D2890
:100070007B08F3007A08F2007908F1007808F000B4
:10008000080083160313071583121211F030970529
:10009000080083160313871483121211F0309D0594
:1000A0000800831603130711831212150C309704EE
:1000B0000800831603138710831212150C309D0459
:1000C0000800831203139B011D129D120800831662
:1000D00003131208013EF000F1010318F10A831224
:1000E0005F08F400F50116200630F2007008F400F5
:1000F0007108F500720803198228F50CF40CF51349
:10010000FF3E7B280430F1007408F00071080319E9
:100110008D28F00D7010FF3E872830307005F300F9
:100120007408F0007508F100F10CF00CF113F10CFB
:10013000F00CF11370089B000F309D0573089D04AF
:100140000800831603131208013EF000F1010318A2
:10015000F10A83125F08F400F50116200630F20060
:100160007008F4007108F50072080319BC28F50C3A
:10017000F40CF513FF3EB5280430F1007408F000CC
:1001800071080319C728F00D7010FF3EC1283030E8
:100190007005F3007408F0007508F100F10CF00C24
:1001A000F113F10CF00CF113700895000F30970566
:1001B000730897040800831203139501171297120E
:1001C0000800831603178C1CE7280000E12883121F
:1001D00003135D0803178D0003135E0803178C00DB
:1001E00083168C130C150B08F0008B1355308D0003
:1001F000AA308D008C14F01BFF288B1300298B175D
:100200000C110800FF308312031387002608003A00
:100210000319202912109210313083169200DB202E
:100220002508DF00A12051201210921031308316D2
:10023000920061202508DF00672059200130A000CE
:1002400008008B11080083120313200803192B29BF
:1002500041204920A0010800831203132108AB00AC
:100260002208AC002308AD002408AE002008031DBE
:100270003D29512059200130A0002508DF00A12090
:100280002508DF00672008008316031398169030B6
:100290008312980083168717071383128C1E532925
:1002A0001A08F0004D29080023218E29FF30A500EF
:1002B0000330C2000030C3000030C4000030A6018B
:1002C0009B2921210330C2000030C3000030C4004C
:1002D00000302C210130A6009B298030A500403041
:1002E000C2000630C3000030C40000302C210230B0
:1002F000A6009B290330DD000230DE00E1208030C3
:1003000083120313A5000230A6004030C20006305D
:10031000C3000030C40000302C219B295C08003A47
:10032000031956295C08013A031961295C08023A4D
:1003300003196D297A290221080083120313550835
:100340008A00540882000800E529673083160313E9
:10035000990018114421082ACF30831699001815E6
:100360004421082A67308316990018154421082A69
:1003700033308316990018154421082A1930831642
:10038000990018154421082A0C3083169900181575
:100390004421082A08308316990018154421082A98
:1003A00003308316990018154421082A0130DD0016
:1003B0000430DE00E120043083120313DC0033300C
:1003C0008316990018154421082A831203135C0828
:1003D000013A0319A5295C08023A0319AC295C0803
:1003E000033A0319B2295C08043A0319B8295C08D6
:1003F000053A0319BE295C08063A0319C4295C08AA
:10040000073A0319CA295C08083A0319D029D629E2
:100410005C08A7000230FB000430FC00BA30FD008D
:10042000FD0B102AFC0B102AFB0B102A0000080001
:100430003D2A963083120313A8000530A90000302E
:10044000AA0000300130AF00482A5630A80004301E
:10045000A9000030AA000030AF01482A5630A80099
:100460000430A9000030AA0000300230DD00DE01B7
:10047000E12083120313AF01482A831203135C089F
:10048000013A0319192A5C08003A0319252A2E2A71
:1004900008008312031385018B15630008000D30DB
:1004A00083120313FC00FB30FD00FD0B552AFC0BEF
:1004B000552A000000000800831603139818622ACA
:1004C00000005C2A83125C08990008008312031361
:1004D0005C0803178D0083168C130C1483120C0810
:1004E000F00008008312031355088A0054088200A4
:1004F0000800333083120313FD00FD0B7D2A00003A
:1005000000000800023083120313DC00662270082A
:100510000313AF003430FC00F130FD00FD0B8E2AD8
:10052000FC0B8E2A000000002F08DC00182234305B
:10053000FC00F130FD00FD0B9B2AFC0B9B2A000008
:1005400000000130DC00662270080313A700700869
:10055000DC00A4213430FC00F130FD00FD0BAE2A9C
:10056000FC0BAE2A000000000530DC0066220313FD
:10057000A4017108A3007008A200A1010030A3002B
:10058000A4003430FC00F130FD00FD0BC52AFC0B4B
:10059000C52A000000000430DC0066227008031346
:1005A000A5003430FC00F130FD00FD0BD52AFC0B1A
:1005B000D52A000000000330DC0066227008031317
:1005C000A6003430FC00F130FD00FD0BE52AFC0BE9
:1005D000E52A000000002608DC00542108008312F0
:1005E0000313D901C1010130C50080304502031851
:1005F0004B2B59084D3EF1005908463E8400000837
:10060000F0007108840070088000450985005908D1
:10061000463E8400060880005908463EF1007108F5
:10062000840006080004F00071088400700880004F
:100630005908463EF1007108840006080004F000E5
:1006400071088400700880005908463EF100710866
:1006500084000009F00071088400700880005908C7
:10066000313EF2005908463E84000008F100590866
:100670004D3E84000009F0007108F0057208840006
:10068000700880005908313E84000008C104D90A6E
:10069000C50D4510F52A0800013083120313DD0053
:1006A0002708DE00E120023083120313DD002F084B
:1006B000DE00E120033083120313DD002608DE0094
:1006C000E120043083120313DD002508DE00E12061
:1006D000053083120313DD002208F0002308F10027
:1006E0002408F200F3017008DE00E1200800831204
:1006F0000313D9010230DC0066227008FF3A031DA3
:100700009B2B02300313DD00DE01E1205630831203
:100710000313A8000430A9000030AA000030AF0184
:10072000D90A3430FC00F130FD00FD0B952BFC0B99
:10073000952B0000000003130130DC0066227008D6
:10074000FF3A031DB92B01300313DD000430DE0036
:10075000E12083120313D90A0430DC00A4213430D1
:10076000FC00F130FD00FD0BB32BFC0BB32B0000A4
:10077000000003130430DC0066227008FF3A031DFA
:10078000D62B04300313DD008030DE00E120803002
:1007900083120313A500D90A3430FC00F130FD00A8
:1007A000FD0BD02BFC0BD02B0000000003130530F9
:1007B000DC0066227008FF3A031DFE2B0030031395
:1007C000A1004030A200A301A4010530DD002208F1
:1007D000F0002308F1002408F200F3017008DE00A5
:1007E000E12083120313D90A3430FC00F130FD00FC
:1007F000FD0BF82BFC0BF82B00000000031303305B
:10080000DC0066227008FF3A031D252C0330031319
:10081000DD000230DE00E120023083120313A60067
:100820004030C2000630C3000030C4000030D90A96
:100830000230DC0054213430FC00F130FD00FD0BAF
:100840001F2CFC0B1F2C0000000003135908F000A4
:1008500008007730831603138F000317880189017E
:100860008312031385018316850183128601FF30ED
:1008700083168600831287018316870181018B11FD
:100880000B100B138C16831218167F3083169600EC
:100890008B1708009D218A110A128000840AD40A4D
:1008A0000319D50AF003031D4A2C08008312031311
:1008B000DA01DB010130C500803045020318992CB4
:1008C0000130B800803038020318952C5B08313EA7
:1008D000840038080005F0000319912C3130F00035
:1008E0000030F1005608F400F5011620AA30F00798
:1008F00006300318013EF1075A08F0070318F10A01
:100900007008D4007108D5009D218A110A12F100E7
:100910007108D9007108003A0319912C5908DC00BC
:100920005C22DA0AB80D3810622CDB0AC50D4510BE
:100930005C2C01304805F40001304705F3007308D2
:10094000F000F101F00DF10D701070087404F30067
:1009500000307104F40040304605F2007208F000E7
:10096000F00CF013F00CF013F00CF013F00CF0138B
:100970000030F1007308F0047408F1047008393E87
:1009800084000008D6000800831203132108AB007E
:100990002208AC002308AD002408AE00471DE12C5E
:1009A000FF3025020318E12CA50A2508DF00A1204D
:1009B0002508DF0067202608003A031DE12C0230DD
:1009C000A600471FF42C2508003C0318F42CA503AF
:1009D0002508DF00A1202508DF0067202608003A4F
:1009E000031DF42C0230A600361CFF2C0230DC0064
:1009F00054210030A1000230A200A301A401B61CC2
:100A0000102D471C072D0130DC00A421102D0230D1
:100A1000DC0054210030A1000430A200A301A40195
:100A2000361D212D471C182D0130DC00A421212D5D
:100A30000230DC0054210030A1000830A200A301E4
:100A4000A401361E322D471C292D0230DC00A421C2
:100A5000322D0230DC0054210030A1001030A20001
:100A6000A301A401B61D432D471C3A2D0330DC0021
:100A7000A421432D0230DC0054210030A10020309D
:100A8000A200A301A401B61E542D471C4B2D043017
:100A9000DC00A421542D0230DC0054210030A100E0
:100AA0004030A200A301A401361F652D471C5C2D18
:100AB0000530DC00A421652D0230DC00542100301B
:100AC000A1008030A200A301A401311C762D471C97
:100AD0006D2D0630DC00A421762D0230DC0054217F
:100AE0000030A100FF30A200A301A401B11C812DA0
:100AF000471C7E2D0730DC00A421812D0130DC0055
:100B00005421311D8B2D471C892D0830DC00A42178
:100B10008B2DDC015421341C902D0130DC00182277
:100B2000B41C942DDC0118224F22080083120313F9
:100B3000D901DA01DB010130C5008030450203181C
:100B4000F02D5A08463E84000008F0005A084D3E39
:100B5000840000087006B000DB010130B80080306E
:100B600038020318EC2D38083005F0000319E72D82
:100B70005908A23EF00007300318013EF10070084A
:100B8000D4007108D5009D218A110A12F3005A0879
:100B9000463E840038080005F1005B08F00071084B
:100BA000F20070080319D82DF20CF213FF3ED22D7B
:100BB0000630F1007208F00071080319E32DF00D02
:100BC0007010FF3EDD2D70087304DC005C22DB0A30
:100BD000D90AB80D3810AF2DDA0AC50D45109D2D74
:100BE0000800831203138C1E3F2E981CFB2D181235
:100BF0004F2218163F2E1A08D900222EDC0154214C
:100C00003F2EE030A5000130DC0054213F2E803023
:100C1000A5000130DC0054213F2E4030A5000130FA
:100C2000DC0054213F2EA5010130DC0054213F2E71
:100C30000230DC0054213F2E2A30DC005C223F2EA3
:100C400000003F2E5908303A0319FE2D5908313A59
:100C50000319012E5908323A0319072E5908333A5D
:100C600003190D2E5908343A0319132E5908353A31
:100C70000319182E5908363A03191C2E202E080085
:100C80008312031341080319472E2C217E2E2E08B0
:100C9000003C031D552E2D08003C031D552E2C082D
:100CA000003C031D552E2B08003C0318602E01301C
:100CB000AB02031CAC02031CAD02031CAE02662E89
:100CC00041204920FF308700A00149222509F10079
:100CD00000302E02031D762E00302D02031D762ECD
:100CE00000302C02031D762E71082B0203187E2E75
:100CF0002B09DF00A1202B09DF0067200800D42783
:100D000029247723013070020318872E8222EF22D4
:100D1000F125C71C8D2EC424992ECE1C902E4C2359
:100D2000831203132808D4002908D50072228A11DF
:100D30000A12831203134208D4004308D50072221A
:100D40008A110A127922872EA42EFF3FFF3FFF3F10
:100D5000FF3FFF3F3834393430340D3470342C3495
:100D600000340034003400342E3420346D34003428
:100D700000347A3478347634633462346E346134D7
:100D8000733464346734663468346A347134773465
:100D900065347434723479347534313432343334E4
:100DA00035343434363437346B3469346F3400348A
:100DB00000346C3408343834393430340D34503421
:100DC0002C3400340034003400342E3420344D34BC
:100DD000003400345A3458345634433442344E3498
:100DE0004134533444344734463448344A3451341B
:100DF0005734453454345234593455343134323400
:100E0000333435343434363437344B3449344F3456
:100E1000003400344C3408343834393430340D3430
:100E200029343A3400340034003400343F34203460
:100E30003E3400340034603427342D34BB347C34E9
:100E40003C347E349A347B34A8347D342F342734B8
:100E5000213440348034253423345E342634313414
:100E60003234333435343434363437345B342A3422
:100E70002834003400345D340834383439343034A4
:100E80000D343D343B340034003400340034BF347E
:100E90002034B53400340034E6349C345F34E73415
:100EA0002B34F134E134DF34F034A534A3345C3432
:100EB0002234A134E534E834FE342434FD34F934EA
:100EC0003134323433343534343436343734A9346D
:100ED000EC34F23400340034F83408340034003494
:100EE00080340034003400340034003400340034E2
:100EF0000034FF34FF340034003400340034003454
:100F00000034003400340034003400340034003441
:100F10000134023402340334033403340334003420
:100F20000034003400340034003400340034003421
:100F30000034003400340034003400340034003411
:100F400000340034083409340A34283414341E348C
:100F50002F3429342A342B3427342C3426342D349E
:100F60001F342034213423342234243425341534DE
:100F700016341734193418341A341B340B340C3427
:100F80000D340F340E341034113401340234033470
:100F900005340434063407341C341234133400345A
:100FA00000341D342E340034203084003430831259
:100FB0000313F0006E30D4000730D5004A24080037
:100FC000FF3FFF3FFF3FFF3FFF3FFF3FFF3FFF3F31
:100FD000FF3FFF3FFF3FFF3FFF3FFF3FFF3FFF3F21
:100FE000FF3FFF3FFF3FFF3FFF3FFF3FFF3FFF3F11
:100FF000FF3FFF3FFF3FFF3FFF3FFF3FFF3FFF3F01
:04400E00C420FF3F8C
:00000001FF
